:100000000C9492000C942E070C945B070C94BA008D
:100010000C94BA000C94BA000C94BA000C94780DAD
:100020000C94BA000C94BA000C94BA000C94BA0068
:100030000C94BA000C94BA000C94BA000C94BA0058
:100040000C940A080C94BA000C94CF090C94BA00D2
:100050000C94BA000C94BA000C94BA000C94BA0038
:100060000C94BA000C94BA0008000000BE92244917
:10007000123EABAAAA2ABECDCCCC4C3E00000080DA
:10008000BEABAAAAAA3E00000000BF000000803F4D
:100090000000000000084178D3BB4387D1133D190D
:1000A0000E3CC3BD4282AD2B3E68EC8276BED98F3A
:1000B000E1A93E4C80EFFFBE01C4FF7F3F0000007E
:1000C000000000000000240027002A0000000000BB
:1000D000250028002B000000000023002600290036
:1000E00004040404040404040202020202020303DE
:1000F00003030303010204081020408001020408E6
:100100001020010204081020000000070002010076
:1001100000030406000000000000000002000102CD
:100120007504CB0A11241FBECFEFD8E0DEBFCDBFD0
:1001300011E0A0E0B1E0E6E2F2E202C005900D922B
:10014000A834B107D9F712E0A8E4B1E001C01D92CC
:10015000A232B107E1F711E0C4E2D1E004C0229776
:10016000FE010E940D11CE31D107C9F70E94050B87
:100170000C941D0E0C940000FC016683478381E003
:10018000848708950F931F938C01FC01868160E0A2
:100190000E94FE08F801868161E00E942409F801AE
:1001A00010861186128613861F910F910895CF92A3
:1001B000DF92EF92FF920F931F93CF93DF93EC01A7
:1001C0008E8161E00E9424096AEF70E080E090E097
:1001D0000E9460080E9452089B01AC0188859985A5
:1001E000AA85BB85281739074A075B0720F41886BC
:1001F00019861A861B868C85882371F488859985D3
:10020000AA85BB85281B390B4A0B5B0B205D374049
:100210004040504008F477C01C860E94520868870E
:1002200079878A879B871C821B821A82198218828F
:100230008E8161E00E94FE088E8160E00E942409A8
:1002400064E170E080E090E00E946008F8948E81A4
:1002500061E00E94240988E290E00E94B9088E8142
:1002600060E00E94FE0881E0EE2400E010E00AC099
:10027000F39481E090E00E94B9082FEFF21629F480
:100280000AC0892FFF24C82EDD248E810E947C099C
:100290008C159D0569F38E810E947C09982F8FEF44
:1002A000F816C9F0043090F000FD10C08E2D869530
:1002B00086958695FE01E80FF11D8081880F808369
:1002C00026E02F1510F481608083E3940F5F1F4FA9
:1002D00005351105B1F6789487E28E1510F030E0FF
:1002E00013C030E04C8150E02981888190E0820F7A
:1002F000911D2A81820F911D2B81820F911D90707B
:100300004817590709F431E0832FDF91CF911F91EE
:100310000F91FF90EF90DF90CF900895EF92FF92B2
:100320000F931F93CF93DF93EC010E94D700882394
:10033000A9F18F818B3031F08B3080F18551823083
:1003400068F507C0688170E080E090E00E94220FAD
:1003500022C0688170E080E090E00E94220F20E0DF
:1003600030E040E853E40E9419107B018C01698160
:1003700070E0882777FD8095982F0E94240F9B01BD
:10038000AC01C801B7010E94210E20E030E040E23C
:1003900051E40E94890EE62F692F0AC088E092E09E
:1003A00060E071E00E94430BE0E070E080EC6FE7FA
:1003B0002E2F372F482F562FB901CA01DF91CF9129
:1003C0001F910F91FF90EF900895623081F063309C
:1003D00028F4662341F0613079F407C0633049F0B6
:1003E000643051F408C091E007C092E005C093E08A
:1003F00003C094E001C095E085B5887F982B95BD3A
:10040000089588E491E069E04BE00E94BC00089503
:100410008AE060E00E94240908958AE061E00E9479
:100420002409089584E060E00E942409089584E08E
:1004300061E00E94240908959F92AF92BF92CF92EB
:10044000DF92EF92FF920F931F93962E84E686170A
:100450001CF4A4E69A2E0CC08CE9681764F066239D
:1004600029F486E060E00E9424093CC016162CF4B2
:1004700088E061E004C0FCE99F2E88E060E00E9413
:10048000240900D000D0EDB7FEB73196292D3327CF
:1004900027FD309537FF03C0309521953F4FB901B7
:1004A000882777FD8095982F2FEF30E040E050E0CF
:1004B000208331834283538320E030E040E050E0EA
:1004C000E4E6EE2EF12C012D112DAA24BB246501AA
:1004D0000E94D40D0F900F900F900F9086E070E067
:1004E0000E94AA07892D1F910F91FF90EF90DF9036
:1004F000CF90BF90AF909F9008959F92AF92BF9280
:10050000CF92DF92EF92FF920F931F93962E84E685
:1005100086171CF404E6902E0CC08CE9681764F072
:10052000662329F485E060E00E9424093CC0161689
:100530002CF487E061E004C01CE9912E87E060E0C4
:100540000E94240900D000D0EDB7FEB73196292DC6
:10055000332727FD309537FF03C0309521953F4F56
:10056000B901882777FD8095982F2FEF30E040E084
:1005700050E0208331834283538320E030E040E029
:1005800050E0B4E6EB2EF12C012D112DAA24BB2452
:1005900065010E94D40D0F900F900F900F9085E091
:1005A00070E00E94AA07892D1F910F91FF90EF9094
:1005B000DF90CF90BF90AF909F9008958DE00E9404
:1005C0007C0960E0892B09F461E08DE00E94240938
:1005D00008958AE00E947C0920E0892B09F421E03B
:1005E000822F089584E00E947C0920E0892B09F481
:1005F00021E0822F08958BE00E947C0920E0892B66
:1006000009F421E0822F089588E491E00E948E0190
:100610000895EF92FF920F931F9379018A0180E072
:1006200090E00E94220F9B01AC0160E070EC8FE72C
:1006300094E40E94890E20E030E040E85FE30E94ED
:10064000200E9B01AC01C801B7010E94890E20E079
:1006500030E44CE156E40E94890E0E94D90F20E05C
:1006600030EE46E755E40E94890E2FE03FEC4BE563
:100670005BE30E94210E9B01AC0160E070E080E82A
:100680009FE30E94890E23E333E948E853E40E9484
:10069000200E20E030E040E151E40E94191020E0FB
:1006A00030E040EA50E40E94890E20E030E040E073
:1006B00052E40E94210E1F910F91FF90EF90089538
:1006C000BF92CF92DF92EF92FF920F931F93CF933F
:1006D000DF93B62E6A01EE24FF248701C0E0D0E04C
:1006E00012C08B2D0E948807AA2797FDA095BA2FCC
:1006F000E80EF91E0A1F1B1F65E070E080E090E025
:100700000E9460082196CC15DD0558F3960140E063
:1007100050E0C801B7010E94CE10C901DF91CF910E
:100720001F910F91FF90EF90DF90CF90BF900895B1
:1007300065E14AE050E00E946003A0E0B0E0BC0147
:10074000CD010E94220F089564E14AE050E00E942A
:10075000600308950F931F938C0161E14AE050E01C
:100760000E946003BC01F8012485358546855785C4
:10077000C8010E9409031F910F9108950F931F93C1
:100780008C0160E14AE050E00E946003BC01F80186
:100790002085318542855385C8010E9409031F9138
:1007A0000F9108950F931F938C016FE04AE050E082
:1007B0000E946003BC01F801248135814681578184
:1007C000C8010E9409031F910F9108950F931F9371
:1007D0008C016EE04AE050E00E946003BC01F80129
:1007E0002081318142815381C8010E9409031F91F8
:1007F0000F9108956F927F928F929F92AF92BF92C6
:10080000CF92DF92EF92FF920F931F93DF93CF93DC
:10081000CDB7DEB73C01FC01408351836283738313
:100820000483158326833783C086D186E286F386C8
:1008300084869586A686B78689899A89AB89BC897C
:10084000808B918BA28BB38B8D899E89AF89B88D5C
:10085000848B958BA68BB78B8BE060E00E94FE08A3
:100860008DE061E00E94FE0884E061E00E94FE08E5
:100870008AE061E00E94FE0887E061E00E94FE08D5
:1008800085E061E00E94FE0888E061E00E94FE08C9
:1008900086E061E00E94FE088DE061E00E9424098C
:1008A000C3010E941702C3010E940D02C30160E050
:1008B0000E947D02C30160E00E941C02C30162E04D
:1008C0000E94E50188E491E00E94C200CF91DF918F
:1008D0001F910F91FF90EF90DF90CF90BF90AF905E
:1008E0009F908F907F906F9008958F929F92AF927C
:1008F000BF92CF92DF92EF92FF920F931F938DB72B
:100900009EB708970FB6F8949EBF0FBE8DBF80E0CC
:1009100090E4ACE1B6E4EDB7FEB781839283A383A4
:10092000B48385839683A783B0878FE591E040E009
:1009300050E46CE176E48A019B016A017B014A0183
:100940005B010E94FA038DB79EB708960FB6F89424
:100950009EBF0FBE8DBF1F910F91FF90EF90DF9054
:10096000CF90BF90AF909F908F9008952F923F921D
:100970004F925F926F927F928F929F92AF92BF92AF
:10098000CF92DF92EF92FF920F931F93DF93CF935B
:10099000CDB7DEB72C970FB6F894DEBF0FBECDBF34
:1009A0000E94520869877A878B879C8780915901BA
:1009B00090915A01A0915B01B0915C0129853A8523
:1009C0004B855C8582179307A407B507E0F48FE594
:1009D00091E00E94DE0289859A85AB85BC858C50AA
:1009E0009E4FAF4FBF4F8093590190935A01A093F0
:1009F0005B01B0935C01845F9140A040B040898767
:100A00009A87AB87BC878091550190915601A09140
:100A10005701B091580129853A854B855C8582172D
:100A20009307A407B50708F004C18FE591E00E9481
:100A3000E6037B018C018FE591E00E94D2035B010C
:100A40006C018FE591E00E94BE033B014C018FE5F4
:100A500091E00E94AA031B012C018FE591E00E9406
:100A600098036D837E838F8398878FE591E00E9442
:100A7000040369837A838B839C8388E092E04985B1
:100A80005A856B857C852AE030E00E94E50B88E082
:100A900092E06AE071E00E94430B88E092E0B801C6
:100AA000A70120E030E00E943D0D88E092E06AE07E
:100AB00071E00E94430B88E092E0B601A50120E0BE
:100AC00030E00E943D0D88E092E06AE071E00E9413
:100AD000430B88E092E0B401A30120E030E00E94E3
:100AE0003D0D88E092E06AE071E00E94430B88E0EF
:100AF00092E0B201A10120E030E00E943D0D88E0CB
:100B000092E06AE071E00E94430B8FE591E00E9461
:100B1000A403BC0188E092E04AE050E00E94F40B9C
:100B200088E092E06AE071E00E94430B88E092E086
:100B300049815A816B817C8120E030E00E943D0D2B
:100B400088E092E06AE071E00E94430B8FE591E05B
:100B50000E94FB02682F88E092E04AE050E00E9489
:100B6000050C88E092E06AE071E00E94430B8FE59B
:100B700091E00E94F202682F88E092E04AE050E0A3
:100B80000E94050C88E092E06AE071E00E94430B4D
:100B90008FE591E00E94E902682F88E092E04AE048
:100BA00050E00E94050C88E092E06AE071E00E944B
:100BB000430B88E092E04D815E816F81788520E073
:100BC00030E00E943D0D88E092E06AE071E00E9412
:100BD000430B60915D01772767FD709588E092E097
:100BE0004AE050E00E944D0C88E092E06AE071E03B
:100BF0000E94430B60915E01772767FD709588E046
:100C000092E04AE050E00E944D0C88E092E00E94A1
:100C1000740C89859A85AB85BC8588579C4EAF4FEF
:100C2000BF4F8093550190935601A0935701B09305
:100C300058012C960FB6F894DEBF0FBECDBFCF91F2
:100C4000DF911F910F91FF90EF90DF90CF90BF90B9
:100C5000AF909F908F907F906F905F904F903F905C
:100C60002F900895CF93DF938936910509F480C0C2
:100C70008A36910554F482359105A1F081369105AB
:100C8000A1F0809709F0C2C0ACC08B36910509F481
:100C900073C08B3691050CF483C08C36910509F036
:100CA000B5C082C00C94001FB1C088E092E06CE037
:100CB00071E00E94430B88E092E00E945D0A892B5C
:100CC000D1F388E092E00E94880AEC0188E092E08B
:100CD0006C2F40E050E00E94600CC033D10509F554
:100CE00088E092E00E945D0A892BD1F388E092E0CF
:100CF0000E94880AEC0188E092E06C2F40E050E00E
:100D00000E94600CC033D10529F48FE591E00E9468
:100D1000170229C0E19739F58FE591E00E94120290
:100D200022C0E19701F588E092E00E945D0A892BDC
:100D3000D1F388E092E00E94880AEC0188E092E01A
:100D40006C2F40E050E00E94600CC033D10529F4C4
:100D50008FE591E00E940D0206C0E19721F48FE536
:100D600091E00E94080288E092E00E94740C4EC05C
:100D700060915E016B5F03C060915E01655060939E
:100D80005E018FE591E00E941C0280935E0188E085
:100D900092E06EE071E00E94430B60915E0117C02B
:100DA00060915D016B5F03C060915D016550609370
:100DB0005D018FE591E00E947D0280935D0188E0F6
:100DC00092E063E171E00E94430B60915D0177273F
:100DD00067FD709588E092E04AE050E00E94960C32
:100DE00015C088E092E068E171E00E948B0C1092DF
:100DF0005D0110925E018FE591E060E00E947D024E
:100E00008FE591E060915E010E941C02DF91CF911D
:100E1000089588E092E00E945D0A892B31F088E015
:100E200092E00E94880A0E94320608950E94B60449
:100E30000E94090708950F931F9308E012E0C8016C
:100E400040E051EE60E070E00E94000AC80162E2FA
:100E500071E00E948B0C1F910F9108951F920F92C9
:100E60000FB60F9211242F933F934F935F936F937D
:100E70007F938F939F93AF93BF93EF93FF93809153
:100E8000770190917801892B29F0E0917701F09119
:100E900078010995FF91EF91BF91AF919F918F914B
:100EA0007F916F915F914F913F912F910F900FBE66
:100EB0000F901F9018951F920F920FB60F9211244A
:100EC0002F933F934F935F936F937F938F939F9352
:100ED000AF93BF93EF93FF938091790190917A0143
:100EE000892B29F0E0917901F0917A010995FF9120
:100EF000EF91BF91AF919F918F917F916F915F9192
:100F00004F913F912F910F900FBE0F901F9018950A
:100F1000982F8E3008F09E50977080913301829503
:100F2000880F880F807C892B80937C0080917A00C9
:100F3000806480937A0080917A0086FDFCCF2091B6
:100F4000780040917900942F80E030E0282B392BF5
:100F5000C90108951F93CF93DF93182FEB0161E030
:100F60000E94FE08209709F44AC0CF3FD10509F43A
:100F700049C0E12FF0E0E85FFE4F84918330C1F07B
:100F8000843028F4813051F08230B1F50CC08630C5
:100F900019F1873049F1843079F514C084B580683F
:100FA00084BDC7BD33C084B5806284BDC8BD2EC0BA
:100FB00080918000806880938000D0938900C093E6
:100FC000880024C080918000806280938000D0934C
:100FD0008B00C0938A001AC08091B0008068809313
:100FE000B000C093B30012C08091B00080628093C3
:100FF000B000C093B4000AC0C038D1051CF4812FE2
:1010000060E002C0812F61E00E942409DF91CF914E
:101010001F9108951F920F920FB60F9211242F93D4
:101020003F938F939F93AF93BF9380917F01909154
:101030008001A0918101B0918201309183010196DC
:10104000A11DB11D232F2D5F2D3720F02D570196A7
:10105000A11DB11D2093830180937F019093800196
:10106000A0938101B093820180917B0190917C01DA
:10107000A0917D01B0917E010196A11DB11D8093CB
:101080007B0190937C01A0937D01B0937E01BF9181
:10109000AF919F918F913F912F910F900FBE0F9025
:1010A0001F9018958FB7F89420917F01309180019F
:1010B00040918101509182018FBFB901CA01089509
:1010C0009B01AC017FB7F89480917B0190917C01EA
:1010D000A0917D01B0917E0166B5A89B05C06F3FD0
:1010E00019F00196A11DB11D7FBFBA2FA92F982F0E
:1010F0008827860F911DA11DB11D62E0880F991FE1
:10110000AA1FBB1F6A95D1F7BC012DC0FFB7F89489
:1011100080917B0190917C01A0917D01B0917E0135
:10112000E6B5A89B05C0EF3F19F00196A11DB11DC2
:10113000FFBFBA2FA92F982F88278E0F911DA11DB1
:10114000B11DE2E0880F991FAA1FBB1FEA95D1F7D6
:10115000861B970B885E9340C8F221503040404078
:10116000504068517C4F211531054105510571F6FC
:101170000895019739F0880F991F880F991F0297DA
:101180000197F1F70895789484B5826084BD84B5A1
:10119000816084BD85B5826085BD85B5816085BD72
:1011A000EEE6F0E0808181608083E1E8F0E010828B
:1011B000808182608083808181608083E0E8F0E0CC
:1011C000808181608083E1EBF0E0808184608083B6
:1011D000E0EBF0E0808181608083EAE7F0E08081ED
:1011E000846080838081826080838081816080834D
:1011F0008081806880831092C1000895482F50E05C
:10120000CA018C509F4FFC01249140525F4FFA015C
:1012100084918823C1F0E82FF0E0EE0FFF1FEE531A
:10122000FF4FA591B491662341F49FB7F8948C9138
:10123000209582238C939FBF08959FB7F8948C913B
:10124000822B8C939FBF0895482F50E0CA01885F7E
:101250009E4FFC012491CA018C509F4FFC01349198
:1012600040525F4FFA019491992309F444C022231C
:1012700051F1233071F0243028F42130A1F02230D4
:1012800011F514C02630B1F02730C1F02430D9F464
:1012900004C0809180008F7703C0809180008F7D93
:1012A0008093800010C084B58F7702C084B58F7D95
:1012B00084BD09C08091B0008F7703C08091B000D9
:1012C0008F7D8093B000E92FF0E0EE0FFF1FE45315
:1012D000FF4FA591B491662341F49FB7F8948C9188
:1012E000309583238C939FBF08959FB7F8948C917A
:1012F000832B8C939FBF0895682F70E0CB01885F8C
:101300009E4FFC012491CB018C509F4FFC014491D6
:1013100060527F4FFB019491992319F420E030E053
:101320003CC0222351F1233071F0243028F42130C5
:10133000A1F0223011F514C02630B1F02730C1F0F1
:101340002430D9F404C0809180008F7703C080914D
:1013500080008F7D8093800010C084B58F7702C09D
:1013600084B58F7D84BD09C08091B0008F7703C0A4
:101370008091B0008F7D8093B000892F90E0880F1E
:10138000991F8A529F4FFC01A591B4918C9120E046
:1013900030E0842311F021E030E0C90108951F926C
:1013A0000F920FB60F9211242F933F934F938F9369
:1013B0009F93EF93FF934091C600E0910402F09158
:1013C000050231969F012F77307031978091060288
:1013D000909107022817390739F0EC57FE4F4083E8
:1013E0003093050220930402FF91EF919F918F911A
:1013F0004F913F912F910F900FBE0F901F90189516
:10140000CF93DF93EC019A01AB01E885F985203099
:1014100081EE380780E0480780E0580709F449C0AA
:1014200081E090E00A8802C0880F991F0A94E2F7D1
:10143000808360E079E08DE390E00E94F01021501D
:10144000304040405040CA01B90122E030E040E065
:1014500050E00E94F010EC81FD813083EE81FF812D
:101460002083EA85FB85208141E050E0CA010E849B
:1014700002C0880F991F0A94E2F7282B2083EA857F
:10148000FB852081CA010F8402C0880F991F0A942E
:10149000E2F7282B2083EA85FB858081088802C03B
:1014A000440F551F0A94E2F7842B8083DF91CF917C
:1014B0000895108220E130E0CECFDC011296ED914C
:1014C000FC911397E058FF4F2191319180819181D8
:1014D000281B390B2F773070C9010895DC01129653
:1014E000ED91FC911397EE57FF4F2081318192913E
:1014F0008291E058F0408217930719F42FEF3FEFE5
:1015000005C0E20FF31F8081282F30E0C901089544
:10151000DC011296ED91FC911397DF01AE57BF4F9E
:101520002D913C911197E058FF4F80819181E058B7
:10153000F0408217930719F42FEF3FEF0BC0E20F33
:10154000F31F80812F5F3F4F2F7730702D933C9397
:10155000282F30E0C9010895DC011296ED91FC912D
:101560001397EE57FF4F8081918192938293089554
:10157000FC01A085B18521898C9190E0022E02C0EA
:10158000959587950A94E2F780FFF6CF0484F58558
:10159000E02D6083089589E391E0909309028093A0
:1015A000080284E891E090930B0280930A0285EC94
:1015B00090E090930D0280930C0284EC90E0909365
:1015C0000F0280930E0280EC90E0909311028093C2
:1015D000100281EC90E0909313028093120286EC4B
:1015E00090E0909315028093140284E08093160299
:1015F00083E08093170287E08093180285E0809350
:10160000190281E080931A0208950E94C3080E9483
:101610001B070E941607FDCF0F931F93CF93DF93F5
:101620008C01EB0109C02196D801ED91FC9101904C
:10163000F081E02DC801099568816623A1F7DF914B
:10164000CF911F910F910895EF92FF920F931F93E7
:10165000CF93DF938C017B01EA010CC0D7016D9120
:101660007D01D801ED91FC910190F081E02DC80140
:1016700009952197209791F7DF91CF911F910F91B5
:10168000FF90EF900895DC01ED91FC910280F381D1
:10169000E02D099508952F923F924F925F926F929D
:1016A0007F928F929F92AF92BF92CF92DF92EF92F2
:1016B000FF920F931F93DF93CF93CDB7DEB7A09721
:1016C0000FB6F894DEBF0FBECDBF1C016A017B01CF
:1016D000411551056105710549F440E350E060E0B2
:1016E00070E020E030E00E94170C56C08824992456
:1016F0005401422E55246624772401E010E00C0F9B
:101700001D1F080D191DC701B601A30192010E94FA
:10171000CE10F80160830894811C911CA11CB11C9F
:10172000C701B601A30192010E94CE10C901DA01DE
:101730006C017D01C114D104E104F104F1F681E0F2
:10174000E82EF12CEC0EFD1EE80CF91C3E0108946D
:10175000611C711CD501C4010197A109B1096C017B
:10176000C818D90816C0F601EE0DFF1D40814A3099
:1017700010F4405D01C0495C552747FD5095652F29
:10178000752FC10120E030E00E94170C0894E10899
:10179000F1086E147F0439F7A0960FB6F894DEBFF7
:1017A0000FBECDBFCF91DF911F910F91FF90EF90B2
:1017B000DF90CF90BF90AF909F908F907F906F9071
:1017C0005F904F903F902F900895DC0121153105D7
:1017D00041F4ED91FC910190F081E02D642F099589
:1017E00008950E944B0B0895EF92FF920F931F9361
:1017F0009A017B0100E010E0B801A7010E94E50B0F
:101800001F910F91FF90EF900895EF92FF920F9329
:101810001F939A01E62EFF2400E010E0B801A70113
:101820000E94E50B1F910F91FF90EF900895EF92AA
:10183000FF920F931F93CF93DF93EC017A018B01FB
:101840002115310541F4E881F9810190F081E02D05
:10185000642F09951BC02A303105B1F477FF10C001
:101860004DE250E060E070E020E030E00E94170CB4
:1018700010950095F094E094E11CF11C011D111DE0
:10188000CE01B801A7012AE00E944B0BDF91CF9156
:101890001F910F91FF90EF900895EF92FF920F9399
:1018A0001F937B019A010027F7FC0095102FB801C8
:1018B000A7010E94170C1F910F91FF90EF900895C0
:1018C000EF92FF920F931F93E62E9A01FF24E7FCFD
:1018D000F0940F2D1F2DB801A7010E94170C1F9126
:1018E0000F91FF90EF9008950F931F938C014DE09F
:1018F00050E060E070E020E030E00E94170CC8018A
:101900004AE050E060E070E020E030E00E94170C18
:101910001F910F9108950F931F938C010E94430B09
:10192000C8010E94740C1F910F910895CF92DF920D
:10193000EF92FF920F931F938C016B019A01EE249B
:10194000D7FCE094FE2CB701A6010E94170CC80139
:101950000E94740C1F910F91FF90EF90DF90CF9039
:1019600008959F92AF92BF92CF92DF92EF92FF9233
:101970000F931F93CF93DF93EC017A018B01922E8B
:10198000CB01BA0120E030E040E050E00E94850E3B
:1019900088236CF4CE014DE250E060E070E020E07E
:1019A00030E00E94170C17FB109517F9109520E0F6
:1019B00030E040E05FE3AA240BC0CA01B90120E097
:1019C00030E040E251E40E94890E9B01AC01A394F7
:1019D000A91498F3C801B7010E94210E5B016C01A4
:1019E0000E94F60E7B018C01CE01B801A7012AE00E
:1019F00030E00E94E50B992029F0CE0161E371E00F
:101A00000E94430BC801B7010E94220F9B01AC0149
:101A1000C601B5010E94200E22C020E030E040E265
:101A200051E40E9419107B018C010E94F10E5B01B0
:101A30006C01CC24B7FCC094DC2CCE01B601A5010E
:101A40002AE030E00E94170CC601B5010E94240F65
:101A50009B01AC01C801B7010E94200E9A94992005
:101A6000E1F6DF91CF911F910F91FF90EF90DF9002
:101A7000CF90BF90AF909F9008950E94B10C0895B1
:101A8000813041F0813018F08230D1F409C01092D9
:101A90006E00089580916F008D7F80936F00089590
:101AA000809170008D7F8093700081E08093B00002
:101AB0008091B100887F84608093B1001092B30060
:101AC00008951F93182F80913401811711F09FEF13
:101AD00006C0ECE1F1E094918FEF80933401892FFF
:101AE0000E94400D812F60E00E9424091F910895FB
:101AF0001F920F920FB60F9211242F933F934F9383
:101B00005F936F937F938F939F93AF93BF93EF9365
:101B1000FF9380911B0290911C02A0911D02B09135
:101B20001E020097A105B10551F1E0911F02F0914D
:101B300020028081909121028927808380911B025D
:101B400090911C02A0911D02B0911E021816190658
:101B50001A061B06C4F480911B0290911C02A091EE
:101B60001D02B0911E020197A109B10980931B02C9
:101B700090931C02A0931D02B0931E0204C080919A
:101B800034010E94610DFF91EF91BF91AF919F9140
:101B90008F917F916F915F914F913F912F910F9016
:101BA0000FBE0F901F9018952F923F924F925F9209
:101BB0006F927F928F929F92AF92BF92CF92DF925D
:101BC000EF92FF920F931F93DF93CF93CDB7DEB7C2
:101BD0003B014C0119012A016D897E898F89988DFD
:101BE0006A197B098C099D09621A730A840A950A8D
:101BF000A40193010E94AF10E218F308040915092B
:101C0000A80197010E94F0102A0D3B1D4C1D5D1D7F
:101C1000B901CA01CF91DF911F910F91FF90EF9011
:101C2000DF90CF90BF90AF909F908F907F906F90FC
:101C30005F904F903F902F900895F8940C9411115D
:101C40005058BB27AA270ED075C166D130F06BD192
:101C500020F031F49F3F11F41EF45BC10EF4E095C7
:101C6000E7FB51C1E92F77D180F3BA1762077307F9
:101C70008407950718F071F49EF58FC10EF4E09576
:101C80000B2EBA2FA02D0B01B90190010C01CA0136
:101C9000A0011124FF27591B99F0593F50F4503EE1
:101CA00068F11A16F040A22F232F342F4427585FD3
:101CB000F3CF469537952795A795F0405395C9F7EB
:101CC0007EF41F16BA0B620B730B840BBAF09150A3
:101CD000A1F0FF0FBB1F661F771F881FC2F70EC042
:101CE000BA0F621F731F841F48F487957795679515
:101CF000B795F7959E3F08F0B3CF9395880F08F0FE
:101D00009927EE0F979587950895D9D008F481E02B
:101D100008950CD00FC107D140F0FED030F021F46F
:101D20005F3F19F0F0C0511139C1F3C014D198F3DD
:101D30009923C9F35523B1F3951B550BBB27AA274C
:101D400062177307840738F09F5F5F4F220F331FBE
:101D5000441FAA1FA9F333D00E2E3AF0E0E830D08A
:101D600091505040E695001CCAF729D0FE2F27D08D
:101D7000660F771F881FBB1F261737074807AB075B
:101D8000B0E809F0BB0B802DBF01FF2793585F4FD0
:101D90002AF09E3F510568F0B6C000C15F3FECF3EA
:101DA000983EDCF3869577956795B795F7959F5F95
:101DB000C9F7880F911D9695879597F90895E1E0E9
:101DC000660F771F881FBB1F621773078407BA0748
:101DD00020F0621B730B840BBA0BEE1F88F7E095A3
:101DE000089504D06894B111D9C00895BCD088F08A
:101DF0009F5790F0B92F9927B751A0F0D1F0660FF7
:101E0000771F881F991F1AF0BA95C9F712C0B13011
:101E100081F0C3D0B1E00895C0C0672F782F882724
:101E2000B85F39F0B93FCCF3869577956795B39550
:101E3000D9F73EF490958095709561957F4F8F4FBF
:101E40009F4F0895E89409C097FB3EF490958095C4
:101E5000709561957F4F8F4F9F4F9923A9F0F92F70
:101E600096E9BB279395F695879577956795B795EE
:101E7000F111F8CFFAF4BB0F11F460FF1BC06F5FD4
:101E80007F4F8F4F9F4F16C0882311F096E911C0E6
:101E9000772321F09EE8872F762F05C0662371F007
:101EA00096E8862F70E060E02AF09A95660F771F1B
:101EB000881FDAF7880F9695879597F90895990FF7
:101EC0000008550FAA0BE0E8FEEF16161706E80704
:101ED000F907C0F012161306E407F50798F0621B25
:101EE000730B840B950B39F40A2661F0232B242BFA
:101EF000252B21F408950A2609F4A140A6958FEF19
:101F0000811D811D089597F99F6780E870E060E06A
:101F100008959FEF80EC089500240A941616170682
:101F200018060906089500240A94121613061406CA
:101F300005060895092E0394000C11F4882352F02D
:101F4000BB0F40F4BF2B11F460FF04C06F5F7F4FE5
:101F50008F4F9F4F089557FD9058440F551F59F0CC
:101F60005F3F71F04795880F97FB991F61F09F3F86
:101F700079F087950895121613061406551FF2CFAF
:101F80004695F1DF08C0161617061806991FF1CFFF
:101F900086957105610508940895E894BB27662726
:101FA0007727CB0197F908950EF0A6C0B2CF6894B9
:101FB000AACFD9DFC8F39923D1F3C6F3DF93CF9328
:101FC0001F930F93FF92C92FDD2788232AF02197B3
:101FD000660F771F881FDAF720E030E040E85FEBFC
:101FE0009FE3883920F0803E30F021968F7729DEFC
:101FF000E8E6F0E003C025DEE5E9F0E08BD08B01F8
:10200000BE01EC01FB2E6F5771097595771F880B88
:10201000990B1ADF28E132E741E35FE316D0AF2DD9
:102020009801AE01FF900F911F91CF91DF911ADEC1
:1020300081CF0BD07FCF70DF28F075DF18F09523AC
:1020400009F061CF66CF1124A9CF85DFA0F3959F5A
:10205000D1F3950F50E0551F629FF001729FBB278F
:10206000F00DB11D639FAA27F00DB11DAA1F649F3B
:102070006627B00DA11D661F829F2227B00DA11DEE
:10208000621F739FB00DA11D621F839FA00D611D74
:10209000221F749F3327A00D611D231F849F600D95
:1020A000211D822F762F6A2F11249F5750408AF0CE
:1020B000E1F088234AF0EE0FFF1FBB1F661F771F5A
:1020C000881F91505040A9F79E3F510570F01BCFDB
:1020D00065CF5F3FECF3983EDCF386957795679587
:1020E000B795F795E7959F5FC1F7FE2B880F911D78
:1020F0009695879597F908959F3F31F0915020F478
:10210000879577956795B795880F911D96958795D3
:1021100097F90895DF93CF931F930F93FF92EF9258
:10212000DF927B018C01689405C0DA2EEF018DDF10
:10213000FE01E894A5912591359145915591AEF315
:10214000EF0190DDFE019701A801DA9479F7DF90A5
:10215000EF90FF900F911F91CF91DF910895629FB3
:10216000D001739FF001829FE00DF11D649FE00D8F
:10217000F11D929FF00D839FF00D749FF00D659FF0
:10218000F00D9927729FB00DE11DF91F639FB00DEF
:10219000E11DF91FBD01CF0111240895A1E21A2EFE
:1021A000AA1BBB1BFD010DC0AA1FBB1FEE1FFF1FFB
:1021B000A217B307E407F50720F0A21BB30BE40B4B
:1021C000F50B661F771F881F991F1A9469F7609592
:1021D0007095809590959B01AC01BD01CF0108954C
:1021E00097FB092E05260ED057FD04D0D7DF0AD065
:1021F000001C38F450954095309521953F4F4F4F36
:102200005F4F0895F6F790958095709561957F4F93
:102210008F4F9F4F0895EE0FFF1F0590F491E02D13
:062220000994F894FFCFC1
:1022260052656164206661696C0020006C00622062
:102236003D200061203D200066756C6C2073746F34
:1022460070007761726D6469727420626567696E89
:10225600002E0001FF00000000B80A0C0B240B5DE5
:082266000A880A6E0AAC0A00A6
:00000001FF
